:1008990081838587898B8D80828486888A8C686527
:0408A9006C6C6F0004
:0908E90007090042171304011570
:1003FB00E4F5161207931209031200031208AD124B
:10040B0005A38E108F1112086D12032EAE10AF11B3
:10041B007C007D641202CB7E007F0ACFCDCFCECC89
:10042B00CE1202CBC007AE10AF117C007D0A1202B8
:10043B00CBD0071206C812000320B7C37F0F7E0074
:10044B0012070720B751AD167FA1120725751400AF
:10045B008F157F8D1208FBAE14AF157C007D6412D7
:10046B0002CB7E007F0ACFCDCFCECCCE1202CBEF0C
:10047B002430FF1208C37F8E1208FBAE14AF157C1D
:10048B00007D0A1202CBED2430FF1208C30516E5DE
:10049B0016B41403E4F51630B7FD7F0F7E00120778
:0904AB000730B70302040A80F8CF
:03000B00020540AB
:10054000C0E0C0F0C083C082C0D075D000C000C081
:1005500001C002C003C004C005C006C007C28CC2EF
:10056000A9758D3C758AB00508E508B46416750850
:1005700000AB11AD127FA01208530512E512B4149E
:1005800003751200D28CD2A9D007D006D005D004B2
:10059000D003D002D001D000D0D0D082D083D0F010
:0305A000D0E03276
:0F06F8008F807F057E00120707D2B47F057E003A
:10070700D3EF9400EE940040147D6E7C00ED1D70D5
:0D071700011CED4C70F7EF1F70E61E80E333
:0107240022B2
:10069300C29200C29000D29200E4FEEF139291EF57
:1006A300C313FFD29000C290000EBE08EEE4FEED2D
:1006B300139291EDC313FDD29000C290000EBE08B9
:0406C300EEC29200F1
:0106C7002210
:10064900C29200C29000D29200E4FDEF139291EFA2
:10065900C313FFD29000C290000DBD08EE00E4FD67
:10066900A291E433FFC43333335480FCEEC3134CFB
:10067900FED29000C290000DBD08E5C29200D29052
:0906890000C29100D29100AF06FD
:010692002245
:1007B700E4FD7F8E120693E4FCEC9008A093FF748F
:1007C700092CF8E6FD1206930CBC07ED7D807F8EA1
:0307D70002069384
:10086D00E4FBEB90089993FF12064974092BF8A647
:05087D00070BBB07EDB5
:010882002253
:1007FB00C2A27F647E00EF1F70011EEF4E70F7D216
:0E080B00A27E007F04EF1F70011EEF4E70F7FB
:0108190022BC
:1008830020A2FDA2A2B340FB7F047E00EF1F7001F4
:050893001EEF4E70F79E
:01089800223D
:10074B00C2A20FBF0000D2A20FBF00000FBF00005C
:10075B00A2A292007E007F08EF1F70011EEF4E7069
:03076B00F7A200F2
:01076E002268
:10076F00E4FDFBFA12074BE433FFC43333335480F9
:10077F00FEEDC3134EFD0BBB00010AEB64084A707C
:03078F00E3AF05D0
:010792002244
:0F05FA001207FB1208837F017E001207077FCCD8
:10060900E4FEEF139200EFC313FF300013C2A2D22E
:10061900A27A007B08EB1B70011AEB4A70F7801B6A
:10062900C2A27A007B08EB1B70011AEB4A70F7D261
:0F063900A20BBB00010A0BBB00010A0EBE08C3D7
:01064800228F
:080003001205FA7F4402060910
:0808F3001205FA7FBE0206099E
:1005A3001208F312076FA90712076FEFFEE9FF8E18
:1005B300178F18AC17AD18EC120211E4FBFA79800F
:1005C300783D1201068F1C8E1B8D1A8C19D3E518EA
:1005D3009400E51764809480E4FFFEFD40047C3FB3
:1005E30080027CBFAB1CAA1BA91AA8191200151202
:0605F300024A8E178F186A
:0105F90022DF
:0A08CB00D2A100D2A000C2A10022B9
:0A08D500C2A100D2A000D2A10022AF
:09081A001209031208CB1207DADF
:10082300D2A00030A10BE517C394FF500405178035
:04083300F2C2A0006D
:01083700229E
:0A08DF00D2A100D2A000C2A00022A6
:05090300D2A1D2A022E8
:1007DA00C2A0E4FEEF30E704D2A18002C2A1EF2555
:1007EA00E0FF00D2A000C2A0000EBE08E7D2A1001E
:0107FA0022DC
:10083800C2A000D2A100E4FED2A000EF25E0FF3064
:0A084800A1010FC2A0000EBE08EED1
:010852002283
:02072500AC071F
:10072700EC54FEFF12081AAF051207DA120823125B
:1007370008CBAF041207DA1208231208381208DFB1
:030747001208D5C0
:01074A00228C
:10085300AE07AC0312081AAF051207DA120823AF6A
:0A086300041207DA1208230208D578
:1008AD00758901758D3C758AB0D2A9D28CD2AF22D3
:0808FB00C2B51206F8C2B422D6
:0608BD00C4540F2430FFBB
:0808C300D2B51206F8C2B422FE
:10079300E4F508C2A6C2A7C2B6C2B47F381208FBEA
:1007A3007F0E1208FB7F061208FB7F011208FB7FF6
:0407B300900208FBAD
:10032E007F801208FB7F321208C37F811208FB7F89
:10033E00301208C37F821208FBE50F1208BD7F83BF
:10034E001208FBE50F1208BE7F841208FB7F2D12E8
:10035E0008C37F851208FBE50D1208BD7F861208C3
:10036E00FBE50D1208BE7F871208FB7F2D1208C316
:10037E007F881208FBE50C1208BD7F891208FBE589
:10038E000C1208BE7F8A1208FB7F201208C37F8BD7
:10039E001208FBE50E1208BE7FC01208FBE50B1219
:1003AE0008BD7FC11208FBE50B1208BE7FC2120802
:1003BE00FB7F3A1208C37FC31208FBE50A1208BD81
:1003CE007FC41208FBE50A1208BE7FC51208FB7F28
:1003DE003A1208C37FC61208FBE5091208BD7FC793
:0D03EE001208FBE509540F2430FF0208C37C
:1006C800AB05AA077FC91208FBEA2430FF1208C34A
:1006D8007FCA1208FBEB2430FF1208C37FCB120835
:1006E800FB7F601208C37FCC1208FB7F430208C35C
:10000E000202B6E86480F8E933E83360110460F068
:10001E00ED33EC337009E8FCE9FDEAFEEBFF220458
:10002E0060DED3EB9FEA9EE99DE8C2E78CF0C2F753
:10003E0095F0400CE8CCF8E9CDF9EACEFAEBCFFB1F
:10004E0012028185D0F05804700320D5B3E80470F5
:10005E00075002B2D50202C092D5EC0460F7E4CC90
:10006E00C0E0C398F8603B94186008400DD0E0FBE8
:10007E00020298E4FBFAC9FC8028E830E406E4C9E1
:10008E00FBE4CAFCE830E305E4C9CACBFCE854073C
:10009E006010F8C3E913F9EA13FAEB13FBEC13FC47
:1000AE00D8F130F52FC3E49CFCEF9BFFEE9AFEEDEA
:1000BE0099FDD0E0FBEF4E4D4C701222DB03020295
:1000CE00BDEC2CFCEF33FFEE33FEED33FDED30E7F0
:1000DE00EB020298EF2BFFEE3AFEED39FDD0E0FB7E
:1000EE0050130BBB00030202C0ED13FDEE13FEEF27
:0800FE0013FFEC13FC02029851
:10010600EC4D6011E8497017ED33EC3304600DE4F3
:10011600FCFFFEFD22E933E8330470F80202B61252
:10012600028158046009E4CC248150062850090253
:1001360002C02840030202BDC0E0EB4A7044B98009
:1001460006D0E0FB0202ACEF4E701CBD8008EBFF50
:10015600EAFEE9FD80EBE98DF0A4FEE5F00201EF91
:10016600E9CDF9EAFEEBFFEF89F0A4FCE5F0CE89D4
:10017600F0A42EFFE435F0CD89F0A42DFEE435F091
:100186008067EF4E7005BD80D780C3EF8BF0A4ACBF
:10019600F0EE8BF0A42CFCE435F0F8EF8AF0A42CFA
:1001A600E5F038FCE433CB8DF0A42CFCE5F03BF80D
:1001B600EE8AF0A42CFCE5F038F8E433CF89F0A4FD
:1001C6002CFCE5F038CF3400CE89F0A42FFFE5F003
:1001D6003EFEE433C98DF0A42EFEE5F039CD8AF05B
:1001E600A42FFFE5F03EFEE43DFD33D0E0FB5007D3
:1001F6000BBB000F0202C0EC2CFCEF33FFEE33FE0C
:06020600ED33FD02029839
:10020C0075F020800E75F010800575F0087D007E6D
:10021C00007F003392D530D503120320EC3340100D
:10022C00EF33FFEE33FEED33FDEC33FCD5F0ED2276
:0E023C00E5F0247EA2D513CC92E7CDCEFF22B2
:10024A00EDD2E7CD33EC3392D524814006E4FFFEAC
:10025A00FDFC22FCE4CFCECDCC24E0501174FF800B
:10026A00EDC3CC13CCCD13CDCE13CECF13CF0470A8
:07027A00F030D5DE02032085
:10028100E9D2E7C933E833F892D5EDD2E7CD33ECC3
:0702910033FC5002B2D5223C
:10029800EC30E7100FBF000C0EBE00080DBD0004C7
:1002A8000BEB6014A2D5EB13FCED92E7FD2274FF73
:1002B800FCFDFEFF22E480F8A2D574FF13FC7D80CC
:0302C800E480EFE0
:030000000204B443
:0C04B400787FE4F6D8FD7581200204FB7F
:1002CB00BC000BBE0029EF8DF084FFADF022E4CC17
:1002DB00F875F008EF2FFFEE33FEEC33FCEE9DECE0
:1002EB00984005FCEE9DFE0FD5F0E9E4CEFD22ED26
:1002FB00F8F5F0EE8420D21CFEADF075F008EF2F70
:10030B00FFED33FD4007985006D5F0F222C398FD60
:05031B000FD5F0EA22FD
:0E032000C3E49FFFE49EFEE49DFDE49CFC22EE
:1004C0000203FBE493A3F8E493A34003F68001F254
:1004D00008DFF48029E493A3F85407240CC8C3333D
:1004E000C4540F4420C8834004F456800146F6DF0C
:1004F000E4800B01020408102040809008E9E47EAB
:10050000019360BCA3FF543F30E509541FFEE49300
:10051000A360010ECF54C025E060A840B8E493A3C7
:10052000FAE493A3F8E493A3C8C582C8CAC583CAF2
:10053000F0A3C8C582C8CAC583CADFE9DEE780BEAA
:0108F2000005
:00000001FF
